S01F000061746D656761333238705F6C6962726172795F637070312E7372656362
S11300000C943A000C9462000C9462000C948004EA
S11300100C94A8040C94D0040C94960C0C946200D8
S11300200C9462000C94160C0C9462000C94F10B6A
S11300300C9462000C9462000C9462000C946200B4
S11300400C94CC0B0C9462000C9462000C9462002F
S11300500C9462000C9462000C9462000C94620094
S11300600C9462000C9462000B05D0094C0C120530
S1130070D709530C11241FBECFEFD8E0DEBFCDBF8C
S113008011E0A0E0B1E0E8EBF8E202C005900D92C7
S1130090A833B107D9F721E0A8E3B1E001C01D926C
S11300A0A938B207E1F710E0C7E3D0E004C0219714
S11300B0FE010E943F0FC433D107C9F70E944706CF
S11300C00C944F140C9400000F93863030F092EF90
S11300D0980F963020F491E003C091E001C090E0C5
S11300E09923C9F1863008F08E50806480937C0097
S11300F0EAE7F0E080818068808380818064808387
S1130100808181608083808182608083808184603B
S1130110808320917A0030E040E050E060E070E0BD
S113012080E090E004E00E94170F217030E040E08E
S113013050E060E070E080E090E0A0E00E94330FC7
S113014041F3EAE7F0E08081806180838091780068
S11301509091790002C080E090E00F91089580E0D2
S11301600E94640008950E946400BC0180E090E055
S11301700E94D80D20E030EC4FE754E40E94370D84
S11301800895CF92DF92EF92FF92FB01DC01CD90B4
S1130190DD90ED90FC90139714966D917D918D9167
S11301A09C91179720813181428153810E948F0E47
S11301B09B01AC01C701B6010E94C60CFF90EF90F1
S11301C0DF90CF900895FC01828193810895FC0112
S11301D080819181660F771F660F771F860F971FA7
S11301E008954F925F926F927F928F929F92AF92F7
S11301F0BF92CF92DF92EF92FF920F931F93CF9310
S1130200DF93FB0120813181232B09F482C04B0150
S1130210EC01688579858A859B8520E030E0A90119
S11302200E94320D18160CF076C0A12CB12CF401EA
S113023080819181A816B9060CF06FC000E010E02F
S11302407E01FCE0EF0EF11CC7010E94E3000817D9
S1130250190708F05AC0B801CE0140960E94E70081
S11302606C01B801C7010E94E7007C01FC016081B8
S113027071818281938120E030E0A9010E94320DD6
S113028081110AC0F60180819181A281B3818883A2
S11302909983AA83BB8336C0B701CE010E94C100F3
S11302A09B01AC01F60160817181828193810E947E
S11302B0C50C288539854A855B850E948F0E2B01E4
S11302C03C019B01AC01688179818A819B810E94F8
S11302D0C60C688379838A839B83F70120813181EB
S11302E042815381C301B2010E948F0E9B01AC0174
S11302F06C817D818E819F810E94C60C6C837D837D
S11303008E839F830F5F1F4F9BCFFFEFAF1ABF0AF0
S11303108ECF80E003C080E001C081E0DF91CF9107
S11303201F910F91FF90EF90DF90CF90BF90AF900F
S11303309F908F907F906F905F904F9008950F9350
S11303401F93CF93DF93EC018B01660F771F660F2A
S1130350771F888199810E946610009731F09983F4
S113036088831B830A8381E001C080E0DF91CF9101
S11303701F910F910895EF92FF920F931F93CF93C4
S1130380DF93A0E0B0E09D01240F351FEC01EA816A
S1130390FB812E173F0728F5EB01EA81FB81AE179D
S11303A0BF07F8F4220F331F220F331FEC01E8813B
S11303B0F9817F01E20EF31E9D01220F331F220FEC
S11303C0331FFB01C081D181C20FD31F0881198162
S11303D02A813B81E701088319832A833B83119691
S11303E0D2CFDF91CF911F910F91FF90EF9008959D
S11303F0EF92FF920F931F93CF938C017B01FB012C
S1130400628173810E949F01C82F882331F040E0EC
S113041050E0B701C8010E94BB018C2FCF911F91FE
S11304200F91FF90EF900895FC01118210821382C6
S113043012820E94F8010895EF92FF920F931F9386
S1130440CF93DF93EC01FB0180819181A281B38181
S113045088839983AA83BB83FA0180819181A281D5
S1130460B3818C839D83AE83BF83F70180819181A7
S1130470A281B38188879987AA87BB87B901CE01F6
S11304800C960E941402B801CE0140960E941402F8
S1130490DF91CF911F910F91FF90EF90089543301A
S11304A0510560F46115710559F0440F551FFC01A5
S11304B0E40FF51F7183608381E0089580E008955F
S11304C080E00895660F771F860F971FFC01208137
S11304D0318181E0232B09F480E00895EF92FF92AB
S11304E01F93CF93DF937C01EB016330710520F4FC
S11304F00E946202182F01C010E0112339F0CC0FC2
S1130500DD1FCE0DDF1DE881F9810995812FDF9173
S1130510CF911F91FF90EF900895DC01ED91FC9134
S11305208185928508950F93DC0112960C911297A0
S1130530ED91FC91A681B781EC9121E030E040E09F
S113054050E060E070E080E090E00E94FC0E2095B6
S1130550E223EC930F9108954F925F926F927F92F2
S11305608F929F92AF92BF92CF92DF92EF92FF92BF
S11305700F93CF93DF93EC010A81E881F981A08185
S1130580B181EC9121E030E040E050E060E070E0C7
S113059080E090E00E94FC0E2095E223EC930A8117
S11305A0E881F981A281B381EC9121E030E040E05F
S11305B050E060E070E080E090E00E94FC0E209546
S11305C0E223EC930A81E8E3F1E040805180628009
S11305D0738021E030E040E050E060E070E080E0D3
S11305E090E00E94FC0E822E932EA42EB52E8094B1
S11305F09094A094B09484209520A620B720808263
S11306009182A282B382CE010E949302198218823F
S11306101A82DF91CF910F91FF90EF90DF90CF90EE
S1130620BF90AF909F908F907F906F905F904F900E
S113063008950E94AC0208950F93CF93FC0178941F
S1130640A081B18118960C91A8E6B0E0CC9121E08C
S113065030E040E050E060E070E080E090E00E9434
S1130660FC0E2C2B2C9302810190F081E02D06804E
S1130670F781E02DA08121E030E040E050E060E02F
S113068070E080E090E00E94FC0E2A2B2083CF9142
S11306900F9108950F93DC0112960C911297ED912E
S11306A0FC910480F581E02D208130E040E050E0B1
S11306B060E070E080E090E00E94170F822F81706C
S11306C00F910895DC01ED91FC9182819381853233
S11306D0910539F440E050E08CE391E00E944F0230
S11306E008958832910539F441E050E08CE391E0BB
S11306F00E944F0208958B9739F442E050E08CE356
S113070091E00E944F02089580E008950F931F9393
S11307107894E8E6F0E0A0818C01112721E030E034
S113072040E050E060E070E080E090E00E94FC0E69
S11307302A2B20831F910F9108950E948D020E94FD
S1130740860308950F931F93A8E6B0E0EC918C0103
S1130750112721E030E040E050E060E070E080E00C
S113076090E00E94FC0E2095E223EC931F910F91E0
S113077008950E948D020E94A2030895683038F4FF
S113078026E031E0FC01318320836283089528EF61
S1130790260F263038F441E151E0FC0151834083B7
S11307A0228308956E50663030F426E031E0FC0177
S11307B031832083628308950F9361307105B9F406
S11307C0DC0112960C911297ED91FC910280F38159
S11307D0E02DA08121E030E040E050E060E070E0F6
S11307E080E090E00E94FC0E2A2B208318C0623027
S11307F07105A9F4FC0102810190F081E02D0190C2
S1130800F081E02DA08121E030E040E050E060E0A4
S113081070E080E090E00E94FC0E2A2B20830F9170
S113082008954F925F926F927F928F929F92AF92B0
S1130830BF92CF92DF92EF92FF920F93DC01E62FEB
S11308407A016431D8F46431B8F44091380150919C
S1130850390160913A0170913B013A014B01242F17
S1130860372D482D592D60E070E080E090E00E2F88
S11308700E94170F217003C020E001C021E0211164
S113088029C067010E2F7D016E2FCD010E94BE038A
S1130890B601C7010E94DC03E8E3F1E04080518027
S11308A06280738021E030E040E050E060E070E07E
S11308B080E090E00E94FC0E822E932EA42EB52E92
S11308C084289528A628B72880829182A282B382A0
S11308D081E001C080E00F91FF90EF90DF90CF9016
S11308E0BF90AF909F908F907F906F905F904F904C
S11308F00895FC011182108212820E94110408954D
S11309001F920F920FB60F9211242F933F934F9380
S11309105F936F937F938F939F93AF93BF93EF9363
S1130920FF9360E070E08CE391E00E946E02FF911F
S1130930EF91BF91AF919F918F917F916F915F9153
S11309404F913F912F910F900FBE0F901F901895CC
S11309501F920F920FB60F9211242F933F934F9330
S11309605F936F937F938F939F93AF93BF93EF9313
S1130970FF9361E070E08CE391E00E946E02FF91CE
S1130980EF91BF91AF919F918F917F916F915F9103
S11309904F913F912F910F900FBE0F901F9018957C
S11309A01F920F920FB60F9211242F933F934F93E0
S11309B05F936F937F938F939F93AF93BF93EF93C3
S11309C0FF9362E070E08CE391E00E946E02FF917D
S11309D0EF91BF91AF919F918F917F916F915F91B3
S11309E04F913F912F910F900FBE0F901F9018952C
S11309F026E0FC0111922A95E9F708950E94F80473
S1130A000895019739F46F3F7F4F21F48CE391E00F
S1130A100E94FE0408956FEF7FEF81E090E00E9452
S1130A20010508956FEF7FEF80E090E00E940105DB
S1130A3008950F93E82F2091C00030E040E050E08B
S1130A4060E070E080E090E005E00E94170F217004
S1130A5030E040E050E060E070E080E090E0A0E052
S1130A600E94330F41F3E093C6000F910895CF9392
S1130A70DF93EC018881882351F00E941905888155
S1130A808D3019F48AE00E9419052196F3CFDF9185
S1130A90CF91089520914201211130C0E1ECF0E0A2
S1130AA0208128602083E2ECF0E020812260208312
S1130AB0208124602083603825E272078105910536
S1130AC089F00E94D80D20E034E244E759E40E9402
S1130AD08F0E20E030E040E05FE30E94C60C0E94ED
S1130AE0A90D02C067E670E07093C5006093C4006E
S1130AF08DE08093C60081E08093420108950E94B6
S1130B00B30020E030E040EA50E40E948F0E0895E4
S1130B10EF92FF920F931F93CF93DF930097D1F13E
S1130B208B01EC011F921F92DF93CF931F921F92B0
S1130B301F921F920E9435110E94450F7C01EDB750
S1130B40FEB738960FB6F894FEBF0FBEEDBF009700
S1130B5019F1FC011082F801808191812281338195
S1130B603F932F939F938F93DF93CF93FF92EF92B3
S1130B700E946511C7010E943705C7010E94DD0F5D
S1130B80EDB7FEB738960FB6F894FEBF0FBEEDBFB3
S1130B9081E003C080E001C080E0DF91CF911F912C
S1130BA00F91FF90EF900895CF92DF92EF92FF9212
S1130BB0CF93DF93CDB7DEB728970FB6F894DEBF97
S1130BC00FBECDBF82E00E947F0569837A838B8349
S1130BD09C83BE016F5F7F4F83E491E00E94C1005C
S1130BE06B017C0120E030E0A9010E948A0E882379
S1130BF04CF020E030E040E05FE3C701B6010E9422
S1130C00C60C08C020E030E040E05FE3C701B60155
S1130C100E94C50C6D837E838F839887BE016B5FB2
S1130C207F4F84E391E00E94880528960FB6F894DC
S1130C30DEBF0FBECDBFDF91CF91FF90EF90DF906D
S1130C40CF9008950E94D4058FE591E00E94610A37
S1130C50089588E691E00E94430A81E791E00E94AA
S1130C609D03089581E791E00E94B90388E691E02D
S1130C700E941C0A81E791E00E944A03882331F014
S1130C800E94D4058FE591E00E94610A0895CF93F4
S1130C90DF9300D0CDB7DEB70E94AF0060E875E205
S1130CA080E090E00E944A0562E376E081E791E00B
S1130CB00E94620369E276E088E691E00E946B0A92
S1130CC062E276E08FE591E00E946B0A81E791E0B1
S1130CD00E941C0384E690E09A838983BE016F5FBF
S1130CE07F4F83E491E00E94F10086E090E00E944F
S1130CF05A0C0E946D0C0E94660CFDCF0F931F933B
S1130D00CF93DF93A0E0B0E0AB30B10510F59D01C7
S1130D10240F351FEC01EA81FB812E173F07C8F42D
S1130D20220F331F220F331FE881F981E20FF31FD3
S1130D30ED01CC0FDD1FCC0FDD1FC60FD71F0881BF
S1130D4019812A813B810083118322833383119685
S1130D50DBCFDF91CF911F910F910895CF92DF9256
S1130D60EF92FF921F93CF93DF93EC016B01EA8024
S1130D70FB80B701655F7F4F0E949F01182F882376
S1130D8029F0A701B601CE010E947E06812FDF91D2
S1130D90CF911F91FF90EF90DF90CF9008954F92E5
S1130DA05F926F927F928F929F92AF92BF92CF92F7
S1130DB0DF92EF92FF920F931F93CF93DF93CDB700
S1130DC0DEB7AC970FB6F894DEBF0FBECDBFFC0103
S1130DD01182108213821282FB0140805180628052
S1130DE0738049825A826B827C82FA0140815181EC
S1130DF0628173814D835E836F837887F9014081BB
S1130E0051816281738149875A876B877C87F80196
S1130E1040815181628173814D875E876F87788BB2
S1130E20F7014081518162817381498B5A8B6B8BAD
S1130E307C8BF60140815181628173814D8B5E8B85
S1130E406F8B788FF5014081518162817381498F65
S1130E505A8F6B8F7C8FF401408151816281738141
S1130E604D8F5E8F6F8F78A32196EEADFFAD2197E6
S1130E70408151816281738149A35AA36BA37CA3EE
S1130E802396EEADFFAD239740815181628173813A
S1130E904DA35EA36FA378A72596EEADFFAD25976E
S1130EA0408151816281738149A75AA76BA77CA7AE
S1130EB0BE016F5F7F4F0E94AE06AC960FB6F894EA
S1130EC0DEBF0FBECDBFDF91CF911F910F91FF9079
S1130ED0EF90DF90CF90BF90AF909F908F907F90D6
S1130EE06F905F904F9008952F923F924F925F9230
S1130EF06F927F928F929F92AF92BF92CF92DF9226
S1130F00EF92FF920F931F93CF93DF93CDB7DEB78A
S1130F10AC970FB6F894DEBF0FBECDBF3C012A01DB
S1130F201901FC011182108213821282FB0160817B
S1130F307181072E000C880B990B0E94DA0D6983CE
S1130F407A838B839C83F20160817181072E000C6C
S1130F50880B990B0E94DA0D6D837E838F839887AB
S1130F60F10160817181072E000C880B990B0E949E
S1130F70DA0D69877A878B879C87F8016081718194
S1130F80072E000C880B990B0E94DA0D6D877E8763
S1130F908F87988BF70160817181072E000C880B75
S1130FA0990B0E94DA0D698B7A8B8B8B9C8BF601E3
S1130FB060817181072E000C880B990B0E94DA0D59
S1130FC06D8B7E8B8F8B988FF50160817181072EDD
S1130FD0000C880B990B0E94DA0D698F7A8F8B8F26
S1130FE09C8FF40160817181072E000C880B990B92
S1130FF00E94DA0D6D8F7E8F8F8F98A32396EEADAE
S1131000FFAD239760817181072E000C880B990B2B
S11310100E94DA0D69A37AA38BA39CA32596EEAD57
S1131020FFAD259760817181072E000C880B990B09
S11310300E94DA0D6DA37EA38FA398A72796EEAD29
S1131040FFAD279760817181072E000C880B990BE7
S11310500E94DA0D69A77AA78BA79CA7BE016F5FD0
S11310607F4FC3010E94AE06AC960FB6F894DEBF64
S11310700FBECDBFDF91CF911F910F91FF90EF90E5
S1131080DF90CF90BF90AF909F908F907F906F90A4
S11310905F904F903F902F900895CF93DF93EC0192
S11310A0888199810E94DD0F198218821B821A821D
S11310B0DF91CF9108950E944D0808954F925F9259
S11310C06F927F928F929F92AF92BF92CF92DF9254
S11310D0EF92FF920F931F93CF93DF93CDB7DEB7B9
S11310E0CE54D1090FB6F894DEBF0FBECDBF3C017C
S11310F02B0181E06816710409F015C16F3F7F4F21
S113110009F011C142E050E069E084E791E00E94F7
S1131110790441E050E06DE081E791E00E947904B8
S113112020E04CE251E060E070E088E691E00E944B
S1131130550B20E040E65AEE61E070E08FE591E067
S11311400E94550B2F961CAE1DAE1EAE1FAE2F97E0
S11311508DEC9CECACECBDE32B968CAF9DAFAEAFAD
S1131160BFAF2B978DEC9CECACE4BEE327968CAF21
S11311709DAFAEAFBFAF27978AE999E9A9E9BEE36E
S113118023968CAF9DAFAEAFBFAF23978DEC9CEC95
S1131190ACECBEE38BAF9CAFADAFBEAF80E090E0F4
S11311A0A0E0BFE38FAB98AFA9AFBAAF8AE999E9E2
S11311B0A9E1BFE38BAB9CABADABBEAB83E393E3E5
S11311C0A3E3BFE38FA798ABA9ABBAAB8DEC9CECC0
S11311D0ACE4BFE38BA79CA7ADA7BEA786E696E6C3
S11311E0A6E6BFE38FA398A7A9A7BAA780E090E0DB
S11311F0A0E8BFE38BA39CA3ADA3BEA3CE018396BB
S11312009F938F9304969F938F9304969F938F93AA
S1131210DE019F964D0108965C0118966D010896B3
S11312207C018E01015C1F4F9E012D5B3F4FAE017F
S1131230495B5F4FBE01655B7F4F8BE591E00E9488
S1131240CF068EEC9FEF9AA389A388ED9FEF98A316
S11312508F8F82EE9FEF9E8F8D8F8CEE9FEF9C8FF2
S11312608B8F86EF9FEF9A8F898F188E1F8A8AE063
S113127090E09E8B8D8B84E190E09C8B8B8B8EE138
S113128090E09A8B898B88E290E0988B8F8782E339
S113129090E09E878D87CE010D969F938F93029643
S11312A09F938F9302969F938F93DE0153964D01E4
S11312B004965C0114966D0104967C010452110994
S11312C09E01235E3F4FAE01415E5F4FBE016F5DE5
S11312D07F4F87E591E00E94740719861A861B8662
S11312E01C861D821E821F8218868DEC9CECACEC41
S11312F0BDE389839A83AB83BC83DE0111967D01B0
S113130007E511E02BE531E0AE014B5F5F4FBE0115
S1131310675F7F4F83E491E00E941C020FB6F8944C
S1131320DEBF0FBECDBF672819F54520409401F5F7
S113133083E591E00E945B088FE491E00E945B08E2
S113134087E591E00E945B088BE591E00E945B08D1
S11313508FE591E00E94A60B88E691E00E94A60B1F
S113136081E791E00E94190384E791E00E94190348
S1131370C25BDF4F0FB6F894DEBF0FBECDBFDF9167
S1131380CF911F910F91FF90EF90DF90CF90BF907E
S1131390AF909F908F907F906F905F904F90089543
S11313A06FEF7FEF81E090E00E945E0808956FEF99
S11313B07FEF80E090E00E945E080895433051057D
S11313C060F46115710559F0440F551FFC01E40FD9
S11313D0F51F7183608381E0089580E0089580E0C3
S11313E00895660F771F860F971FFC0120813181B6
S11313F081E0232B09F480E00895EF92FF921F937C
S1131400CF93DF937C01EB016330710520F40E94DC
S1131410F109182F01C010E0112339F0CC0FDD1FA2
S1131420CE0DDF1DE881F9810995812FDF91CF91E0
S11314301F91FF90EF9008950F93CF93FC01789440
S113144084819581A681B781892B8A2B8B2BC1F04E
S1131450A081B18116960C91169714960D90BC91AB
S1131460A02DCC9121E030E040E050E060E070E05D
S113147080E090E00E94FC0E2C2B2C9381E080876E
S1131480CF910F9108950F93CF93DF93DC01ED91EA
S1131490FC9111970681C481D581E88121E030E077
S11314A040E050E060E070E080E090E00E94FC0EDC
S11314B02095E223E88318961C92DF91CF910F9137
S11314C00895DC01ED91FC91108211821282138245
S11314D00E941C0A08956115710559F0FC010190E0
S11314E0F081E02D478150E08DE791E00E94DE0914
S11314F0089580E00895CF93DF93FC0180858823CD
S113150069F0C081D18188819981AA81BB810196CA
S1131510A11DB11D88839983AA83BB838085DF9134
S1131520CF9108950F931F93FC019085992381F027
S1131530A081B1810D911D912D913C9144815581E2
S113154066817781041715072607370718F403C047
S113155091E001C090E0911109C00190F081E02D6B
S1131560108211821282138281E001C080E01F91F7
S11315700F9108950097A1F0BC0180E090E00E94D3
S1131580D80D2FE632E143E05EE30E94370D20E000
S113159030E040E05FE30E94C60C0E94A90D08956C
S11315A060E070E0CB0108950F931F93CF93DF9316
S11315B08C01EB01209711F40E94430ACE010E9492
S11315C0BA0AF8016483758386839783DF91CF9188
S11315D01F910F91089526E0FC0111922A95E9F7D5
S11315E00895660F771F860F971F0895CF93DF9393
S11315F0EC018A819B81009799F460E070E087E7B1
S113160091E00E94F10AFC0180819181892B09F00B
S113161044C082E085BD8CE291E09983888330C028
S113162081309105C9F461E070E087E791E00E94A0
S1131630F10AFC0180819181892B89F58AE08093EC
S1131640810080E091E0909389008093880084E297
S113165091E09983888314C0029791F462E070E06A
S113166087E791E00E94F10AFC0180819181892B36
S1131670C1F482E08093B1008CE191E09983888386
S1131680E881F981678170E087E791E00E94F10ABF
S1131690FC01D183C08381E005C080E003C080E009
S11316A001C080E0DF91CF910895EF92FF921F93E4
S11316B0CF93DF93EC017A01122F198218827B8376
S11316C06A831C821D821E821F8218860E94F60A6B
S11316D0882349F0B701CE010E94D40A112319F0DE
S11316E0CE010E941C0ADF91CF911F91FF90EF90D1
S11316F00895CF93DF93EC018A819B81009711F4C5
S113170015BC0EC08130910539F4109281001092FD
S113171089001092880004C0029711F41092B1005D
S1131720E881F9810480F581E02D1082E881F98156
S1131730678170E087E791E00E94F10AFC01118261
S1131740108219821882DF91CF9108950E94790B3B
S113175008950F931F93CF93DF93C82FD0E0BE015A
S113176087E791E00E94F10AFC01008111810115D3
S1131770110569F0C8010E947B0AC8010E94920AFF
S1131780882329F0BE018DE791E00E94FD09DF91D5
S1131790CF911F910F9108951F920F920FB60F9240
S11317A011242F933F934F935F936F937F938F9362
S11317B09F93AF93BF93EF93FF9380E00E94A90B95
S11317C0FF91EF91BF91AF919F918F917F916F9115
S11317D05F914F913F912F910F900FBE0F901F90EB
S11317E018951F920F920FB60F9211242F933F93C7
S11317F04F935F936F937F938F939F93AF93BF9315
S1131800EF93FF9381E00E94A90BFF91EF91BF91A9
S1131810AF919F918F917F916F915F914F913F9184
S11318202F910F900FBE0F901F9018951F920F923B
S11318300FB60F9211242F933F934F935F936F939F
S11318407F938F939F93AF93BF93EF93FF9382E024
S11318500E94A90BFF91EF91BF91AF919F918F913E
S11318607F916F915F914F913F912F910F900FBE98
S11318700F901F9018950E94F8040895019759F449
S11318806F3F7F4F41F48DE791E00E943B0C87E767
S113189091E00E94EB0A08956FEF7FEF81E090E002
S11318A00E943E0C08956FEF7FEF80E090E00E946D
S11318B03E0C0895F894E0E6F0E090819061908306
S11318C0908198609083808378940895F894A89583
S11318D084B7877F84BF789408950E94660CF89437
S11318E0E0E6F0E08081806180838081886080838D
S11318F0808188608083789408950097A9F09093FC
S11319008401809383010E94660CF894E0E6F0E081
S1131910808180618083808188608083808180640D
S11319208083789481E0089580E008951F920F9257
S11319300FB60F9211242F933F934F935F936F939E
S11319407F938F939F93AF93BF93EF93FF93809174
S11319508301909184010E947D0CE0918301F091B8
S11319608401309709F00995FF91EF91BF91AF91F0
S11319709F918F917F916F915F914F913F912F91A3
S11319800F900FBE0F901F9018955058BB27AA2791
S11319900E94DD0C0C94500E0E94420E38F00E94FE
S11319A0490E20F039F49F3F19F426F40C943F0EAD
S11319B00EF4E095E7FB0C94390EE92F0E94610EBA
S11319C058F3BA17620773078407950720F079F470
S11319D0A6F50C94830E0EF4E0950B2EBA2FA02DD1
S11319E00B01B90190010C01CA01A0011124FF27C8
S11319F0591B99F0593F50F4503E68F11A16F040C3
S1131A00A22F232F342F4427585FF3CF46953795C1
S1131A102795A795F0405395C9F77EF41F16BA0B86
S1131A20620B730B840BBAF09150A1F0FF0FBB1F34
S1131A30661F771F881FC2F70EC0BA0F621F731F7D
S1131A40841F48F4879577956795B795F7959E3FDA
S1131A5008F0B0CF9395880F08F09927EE0F97956B
S1131A60879508950E94150E08F481E008950E9458
S1131A704B0D0C94500E0E94490E58F00E94420ED9
S1131A8040F029F45F3F29F00C94390E51110C9465
S1131A90840E0C943F0E0E94610E68F39923B1F3F7
S1131AA0552391F3951B550BBB27AA276217730780
S1131AB0840738F09F5F5F4F220F331F441FAA1F14
S1131AC0A9F335D00E2E3AF0E0E832D091505040D0
S1131AD0E695001CCAF72BD0FE2F29D0660F771F7E
S1131AE0881FBB1F261737074807AB07B0E809F064
S1131AF0BB0B802DBF01FF2793585F4F3AF09E3FE9
S1131B00510578F00C94390E0C94840E5F3FE4F385
S1131B10983ED4F3869577956795B795F7959F5F2B
S1131B20C9F7880F911D9695879597F90895E1E077
S1131B30660F771F881FBB1F621773078407BA07D6
S1131B4020F0621B730B840BBA0BEE1F88F7E09531
S1131B5008950E94690E88F09F5798F0B92F99272D
S1131B60B751B0F0E1F0660F771F881F991F1AF084
S1131B70BA95C9F714C0B13091F00E94830EB1E058
S1131B8008950C94830E672F782F8827B85F39F057
S1131B90B93FCCF3869577956795B395D9F73EF41D
S1131BA090958095709561957F4F8F4F9F4F0895C5
S1131BB0E89409C097FB3EF49095809570956195E3
S1131BC07F4F8F4F9F4F9923A9F0F92F96E9BB2799
S1131BD09395F695879577956795B795F111F8CF15
S1131BE0FAF4BB0F11F460FF1BC06F5F7F4F8F4F80
S1131BF09F4F16C0882311F096E911C0772321F076
S1131C009EE8872F762F05C0662371F096E8862F0D
S1131C1070E060E02AF09A95660F771F881FDAF764
S1131C20880F9695879597F90895990F0008550F91
S1131C30AA0BE0E8FEEF16161706E807F907C0F04E
S1131C4012161306E407F50798F0621B730B840B56
S1131C50950B39F40A2661F0232B242B252B21F430
S1131C6008950A2609F4A140A6958FEF811D811DD0
S1131C70089597F99F6780E870E060E008959FEF0A
S1131C8080EC089500240A9416161706180609060F
S1131C90089500240A9412161306140605060895DE
S1131CA0092E0394000C11F4882352F0BB0F40F466
S1131CB0BF2B11F460FF04C06F5F7F4F8F4F9F4FA6
S1131CC0089557FD9058440F551F59F05F3F71F028
S1131CD04795880F97FB991F61F09F3F79F087958F
S1131CE00895121613061406551FF2CF4695F1DF18
S1131CF008C0161617061806991FF1CF86957105A8
S1131D00610508940895E894BB2766277727CB01DB
S1131D1097F908950E94150E08F48FEF08950E9414
S1131D20A20E0C94500E0E94420E38F00E94490EEE
S1131D3020F0952311F00C94390E0C943F0E1124CD
S1131D400C94840E0E94610E70F3959FC1F3950F5D
S1131D5050E0551F629FF001729FBB27F00DB11D2B
S1131D60639FAA27F00DB11DAA1F649F6627B00DBB
S1131D70A11D661F829F2227B00DA11D621F739FA4
S1131D80B00DA11D621F839FA00D611D221F749FB2
S1131D903327A00D611D231F849F600D211D822FF9
S1131DA0762F6A2F11249F5750409AF0F1F0882320
S1131DB04AF0EE0FFF1FBB1F661F771F881F91504D
S1131DC05040A9F79E3F510580F00C94390E0C94B5
S1131DD0840E5F3FE4F3983ED4F386957795679538
S1131DE0B795F795E7959F5FC1F7FE2B880F911D77
S1131DF09695879597F908950F93083090F0982F4A
S1131E00872F762F652F542F432F322F22270850E8
S1131E10F4CF220F331F441F551F661F771F881FDF
S1131E20991F0A95B2F70F91089597FB10F816942D
S1131E3000080F93083098F00850232F342F452FB3
S1131E40562F672F782F892F902DF4CF05949795CF
S1131E5087957795679557954795379527950A956B
S1131E60AAF70F9108950024A7FD00942A173005BE
S1131E704005500560057005800590050895EE0F36
S1131E80FF1F0590F491E02D09940F931F93CF93B6
S1131E90DF938230910510F482E090E0E0918701B5
S1131EA0F091880120E030E0A0E0B0E0309719F133
S1131EB0408151810281138148175907C8F0841762
S1131EC0950769F4109731F012960C9312971396B4
S1131ED01C9327C0009387011093880122C0211509
S1131EE0310519F04217530718F49A01BD01EF01A7
S1131EF0DF01F801DBCF21153105F9F0281B390B7F
S1131F002430310580F48A819B816115710521F0AB
S1131F10FB019383828304C090938801809387019B
S1131F20FE01329644C0FE01E20FF31F81939193A8
S1131F3022503109398328833AC020918501309198
S1131F408601232B41F42091020130910301309347
S1131F508601209385012091000130910101211512
S1131F60310541F42DB73EB740910401509105016C
S1131F70241B350BE0918501F0918601E217F307EC
S1131F80A0F42E1B3F0B2817390778F0AC014E5FE5
S1131F905F4F2417350748F04E0F5F1F509386019B
S1131FA0409385018193919302C0E0E0F0E0CF017A
S1131FB0DF91CF911F910F910895CF93DF930097F5
S1131FC009F481C0FC01329713821282A091870127
S1131FD0B0918801109781F420813181820F931F81
S1131FE020918501309186012817390751F5F09326
S1131FF08601E093850167C0ED0120E030E0CE1753
S1132000DF0740F44A815B819E0141155105F1F0DF
S1132010EA01F5CFD383C28340815181840F951F98
S1132020C817D90759F488819981840F951F02969E
S1132030918380838A819B819383828321153105D7
S113204029F4F0938801E09387013DC0E901FB8303
S1132050EA8349915991C40FD51FEC17FD0761F428
S113206080819181840F951F0296E9019983888369
S1132070828193819B838A83E0E0F0E012968D91C4
S11320809C911397009719F0FD01DC01F7CF8D9116
S11320909C9111979D012E5F3F4F820F931F2091BA
S11320A08501309186012817390769F4309729F49E
S11320B0109288011092870102C013821282B09399
S11320C08601A0938501DF91CF910895A0E0B0E04F
S11320D0ECE6F0E10C941C14EC01009721F4CB0124
S11320E00E94450FB4C0FC01E60FF71F9C0122506B
S11320F03109E217F30708F4A8C0D9010D911C9126
S1132100119706171707B0F00530110508F49BC0A6
S1132110C80104978617970708F495C0025011095F
S1132120061B170B019311936D937C93CF010E94AF
S1132130DD0F89C05B01A01AB10A4C01800E911E0B
S1132140A0918701B0918801612C712CE12CF12CB4
S1132150109709F446C08D919C911197A815B90563
S1132160B1F56C0142E0C40ED11CCA14DB0478F151
S11321704C018A189B08640142E0C40ED11C1296DB
S1132180BC9012971396AC91B5E0CB16D10440F0F5
S1132190B282A38391828082D9016D937C9309C01A
S11321A00E5F1F4F800F911FF90191838083EB2DE8
S11321B0FA2FE114F10431F0D7011396FC93EE9356
S11321C0129741C0F0938801E09387013CC06816E0
S11321D0790608F43C017D0112960D90BC91A02D66
S11321E0B7CF809185019091860188169906E1F414
S11321F066167706C8F4809100019091010100975A
S113220041F48DB79EB74091040150910501841BA0
S1132210950BE817F907C8F4F0938601E09385015C
S1132220F901718360830FC0CB010E94450F7C01CB
S1132230009759F0A801BE010E942C11CE010E9402
S1132240DD0FC70104C0CE0102C080E090E0CDB72D
S1132250DEB7EEE00C943814FB01DC0102C00190FF
S11322600D9241505040D8F70895AEE0B0E0EBE352
S1132270F1E10C9426140D891E898F89988D26E02E
S11322802C831A83098397FF02C080E090E80197AA
S11322909E838D83AE01455E5F4F698D7A8DCE013D
S11322A001960E9487114D815E8157FD0AC02F81DE
S11322B03885421753070CF49A01F801E20FF31F13
S11322C010822E96E4E00C944214AEE0B0E0EBE60B
S11322D0F1E10C9426140D891E8986E08C831A83FF
S11322E009838FEF9FE79E838D83AE01475E5F4F27
S11322F06F89788DCE0101960E948711EF81F88550
S1132300E00FF11F10822E96E4E00C944214ABE02F
S1132310B0E0EDE8F1E10C9418146C017B018A0142
S1132320FC0117821682838181FFCCC1CE01019604
S11323303C01F6019381F70193FD859193FF81910F
S11323407F01882309F4BAC1853239F493FD85915C
S113235093FF81917F01853229F4B60190E00E94B8
S11323607E13E7CF912C212C312CFFE1F315D8F00B
S11323708B3279F038F4803279F08332A1F4232D52
S113238020611DC08D3261F0803369F4232D2160FA
S113239016C0832D8260382EE32DE4603E2E2AC0C1
S11323A0F32DF8601DC037FC2DC020ED280F2A3016
S11323B040F08E32B9F436FC81C1232D2064322ED4
S11323C019C036FE06C08AE0989E200D1124922E74
S11323D011C0EAE02E9E200D1124222EF32DF0626E
S11323E03F2E08C08C3621F4832D8068382E02C01D
S11323F0883641F4F70193FD859193FF81917F0124
S11324008111B3CF982F9F7D9554933028F40C5F9E
S11324101F4F9FE399830DC0833631F0833771F0EA
S1132420833509F059C021C0F801808189830E5F8A
S11324301F4F88248394912C530113C02801F2E088
S11324404F0E511CF801A080B18036FE03C0692DE7
S113245070E002C06FEF7FEFC5010E9473134C015F
S11324608201F32DFF773F2E16C0280122E0420E91
S1132470511CF801A080B18036FE03C0692D70E0C4
S113248002C06FEF7FEFC5010E9468134C01F32D6A
S1132490F0683F2E820133FC1BC0822D90E0881629
S11324A09906B0F4B60180E290E00E947E132A946B
S11324B0F4CFF50137FC859137FE81915F01B601B8
S11324C090E00E947E1321102A9421E0821A910840
S11324D08114910471F7E8C0843611F0893641F50E
S11324E0F80137FE07C060817181828193810C5F9E
S11324F01F4F08C060817181072E000C880B990B57
S11325000E5F1F4FF32DFF763F2E97FF09C0909566
S11325108095709561957F4F8F4F9F4FF0683F2E48
S11325202AE030E0A3010E94BA13882E861845C021
S1132530853731F4232D2F7EB22E2AE030E025C0DA
S1132540932D997FB92E8F36C1F018F4883579F020
S1132550B5C0803719F0883721F0B0C0E92FE061A9
S1132560BE2EB4FE0DC0FB2DF460BF2E09C034FE98
S11325700AC0292F2660B22E06C028E030E005C02C
S113258020E130E002C020E132E0F801B7FE07C0EC
S113259060817181828193810C5F1F4F06C06081CD
S11325A0718180E090E00E5F1F4FA3010E94BA1377
S11325B0882E8618FB2DFF773F2E36FE0DC0232D67
S11325C02E7FA22E891458F434FE0BC032FC09C0AD
S11325D0832D8E7EA82E05C0B82CA32C03C0B82C46
S11325E001C0B92CA4FE0FC0FE01E80DF11D8081CD
S11325F0803321F49A2D997EA92E09C0A2FE06C02B
S1132600B394B39404C08A2D867809F0B394A3FCE0
S113261011C0A0FE06C0B21488F4280C922C9B189A
S11326200EC0B21460F4B60180E290E00E947E1302
S1132630B394F7CFB21418F42B1802C0982C212CA1
S1132640A4FE10C0B60180E390E00E947E13A2FEB7
S113265017C0A1FC03C088E790E002C088E590E0C1
S1132660B6010CC08A2D867859F0A1FE02C08BE217
S113267001C080E2A7FC8DE2B60190E00E947E13C7
S1132680891438F4B60180E390E00E947E139A9492
S1132690F7CF8A94F301E80DF11D8081B60190E033
S11326A00E947E138110F5CF222009F442CEB60198
S11326B080E290E00E947E132A94F6CFF601868190
S11326C0978102C08FEF9FEF2B96E2E10C943414B4
S11326D0FC010590615070400110D8F780959095E9
S11326E08E0F9F1F0895FC016150704001900110EE
S11326F0D8F7809590958E0F9F1F08950F931F9381
S1132700CF93DF93FB01238121FD03C08FEF9FEF64
S11327102CC022FF16C0468157812481358142177F
S1132720530744F4A081B1819D012F5F3F4F318352
S113273020838C93268137812F5F3F4F37832683F5
S113274014C08B01EC01FB010084F185E02D099597
S1132750892BE1F6D80116968D919C9117970196D5
S113276017969C938E931697CE01DF91CF911F916C
S11327700F910895FA01AA27283051F1203181F1EF
S1132780E8946F936E7F6E5F7F4F8F4F9F4FAF4F75
S1132790B1E03ED0B4E03CD0670F781F891F9A1F88
S11327A0A11D680F791F8A1F911DA11D6A0F711D3C
S11327B0811D911DA11D20D009F468943F912AE048
S11327C0269F11243019305D3193DEF6CF01089530
S11327D0462F4770405D4193B3E00FD0C9F7F6CF61
S11327E0462F4F70405D4A3318F0495D31FD405229
S11327F0419302D0A9F7EACFB4E0A69597958795BF
S113280077956795BA95C9F700976105710508959D
S11328109B01AC010A2E0694579547953795279549
S1132820BA95C9F7620F731F841F951FA01D0895E1
S11328302F923F924F925F926F927F928F929F92CC
S1132840AF92BF92CF92DF92EF92FF920F931F93BA
S1132850CF93DF93CDB7DEB7CA1BDB0B0FB6F8946B
S1132860DEBF0FBECDBF09942A88398848885F84AB
S11328706E847D848C849B84AA84B984C884DF801C
S1132880EE80FD800C811B81AA81B981CE0FD11D00
S11328900FB6F894DEBF0FBECDBFED01089510E072
S11328A0C7E3D0E004C0FE010E943F0F2196CA3363
S10B28B0D107C9F7F894FFCF2A
S11328B80000890120002A002B0029006D00020273
S11328C8002400250023006B000000000000000025
S11328D870000002000000006F0001010000000009
S10B28E86E00000025642000CD
S9030000FC
